{
  "_format": "hh-sol-artifact-1",
  "contractName": "SAPE",
  "sourceName": "contracts/SAPE.sol",
  "abi": [
    {
      "inputs": [],
      "stateMutability": "nonpayable",
      "type": "constructor"
    },
    {
      "inputs": [],
      "name": "SAPE__OnlyControllersCanMint",
      "type": "error"
    },
    {
      "anonymous": false,
      "inputs": [
        {
          "indexed": true,
          "internalType": "address",
          "name": "owner",
          "type": "address"
        },
        {
          "indexed": true,
          "internalType": "address",
          "name": "spender",
          "type": "address"
        },
        {
          "indexed": false,
          "internalType": "uint256",
          "name": "value",
          "type": "uint256"
        }
      ],
      "name": "Approval",
      "type": "event"
    },
    {
      "anonymous": false,
      "inputs": [
        {
          "indexed": true,
          "internalType": "address",
          "name": "previousOwner",
          "type": "address"
        },
        {
          "indexed": true,
          "internalType": "address",
          "name": "newOwner",
          "type": "address"
        }
      ],
      "name": "OwnershipTransferred",
      "type": "event"
    },
    {
      "anonymous": false,
      "inputs": [
        {
          "indexed": true,
          "internalType": "address",
          "name": "from",
          "type": "address"
        },
        {
          "indexed": true,
          "internalType": "address",
          "name": "to",
          "type": "address"
        },
        {
          "indexed": false,
          "internalType": "uint256",
          "name": "value",
          "type": "uint256"
        }
      ],
      "name": "Transfer",
      "type": "event"
    },
    {
      "inputs": [
        {
          "internalType": "address",
          "name": "owner",
          "type": "address"
        },
        {
          "internalType": "address",
          "name": "spender",
          "type": "address"
        }
      ],
      "name": "allowance",
      "outputs": [
        {
          "internalType": "uint256",
          "name": "",
          "type": "uint256"
        }
      ],
      "stateMutability": "view",
      "type": "function"
    },
    {
      "inputs": [
        {
          "internalType": "address",
          "name": "spender",
          "type": "address"
        },
        {
          "internalType": "uint256",
          "name": "amount",
          "type": "uint256"
        }
      ],
      "name": "approve",
      "outputs": [
        {
          "internalType": "bool",
          "name": "",
          "type": "bool"
        }
      ],
      "stateMutability": "nonpayable",
      "type": "function"
    },
    {
      "inputs": [
        {
          "internalType": "address",
          "name": "account",
          "type": "address"
        }
      ],
      "name": "balanceOf",
      "outputs": [
        {
          "internalType": "uint256",
          "name": "",
          "type": "uint256"
        }
      ],
      "stateMutability": "view",
      "type": "function"
    },
    {
      "inputs": [
        {
          "internalType": "uint256",
          "name": "amount",
          "type": "uint256"
        }
      ],
      "name": "burn",
      "outputs": [],
      "stateMutability": "nonpayable",
      "type": "function"
    },
    {
      "inputs": [
        {
          "internalType": "address",
          "name": "account",
          "type": "address"
        },
        {
          "internalType": "uint256",
          "name": "amount",
          "type": "uint256"
        }
      ],
      "name": "burnFrom",
      "outputs": [],
      "stateMutability": "nonpayable",
      "type": "function"
    },
    {
      "inputs": [],
      "name": "decimals",
      "outputs": [
        {
          "internalType": "uint8",
          "name": "",
          "type": "uint8"
        }
      ],
      "stateMutability": "view",
      "type": "function"
    },
    {
      "inputs": [
        {
          "internalType": "address",
          "name": "spender",
          "type": "address"
        },
        {
          "internalType": "uint256",
          "name": "subtractedValue",
          "type": "uint256"
        }
      ],
      "name": "decreaseAllowance",
      "outputs": [
        {
          "internalType": "bool",
          "name": "",
          "type": "bool"
        }
      ],
      "stateMutability": "nonpayable",
      "type": "function"
    },
    {
      "inputs": [
        {
          "internalType": "address",
          "name": "spender",
          "type": "address"
        },
        {
          "internalType": "uint256",
          "name": "addedValue",
          "type": "uint256"
        }
      ],
      "name": "increaseAllowance",
      "outputs": [
        {
          "internalType": "bool",
          "name": "",
          "type": "bool"
        }
      ],
      "stateMutability": "nonpayable",
      "type": "function"
    },
    {
      "inputs": [
        {
          "internalType": "address",
          "name": "to",
          "type": "address"
        },
        {
          "internalType": "uint256",
          "name": "amount",
          "type": "uint256"
        }
      ],
      "name": "mint",
      "outputs": [],
      "stateMutability": "nonpayable",
      "type": "function"
    },
    {
      "inputs": [],
      "name": "name",
      "outputs": [
        {
          "internalType": "string",
          "name": "",
          "type": "string"
        }
      ],
      "stateMutability": "view",
      "type": "function"
    },
    {
      "inputs": [],
      "name": "owner",
      "outputs": [
        {
          "internalType": "address",
          "name": "",
          "type": "address"
        }
      ],
      "stateMutability": "view",
      "type": "function"
    },
    {
      "inputs": [],
      "name": "renounceOwnership",
      "outputs": [],
      "stateMutability": "nonpayable",
      "type": "function"
    },
    {
      "inputs": [
        {
          "internalType": "address",
          "name": "controller",
          "type": "address"
        },
        {
          "internalType": "bool",
          "name": "_state",
          "type": "bool"
        }
      ],
      "name": "setController",
      "outputs": [],
      "stateMutability": "payable",
      "type": "function"
    },
    {
      "inputs": [],
      "name": "symbol",
      "outputs": [
        {
          "internalType": "string",
          "name": "",
          "type": "string"
        }
      ],
      "stateMutability": "view",
      "type": "function"
    },
    {
      "inputs": [],
      "name": "totalSupply",
      "outputs": [
        {
          "internalType": "uint256",
          "name": "",
          "type": "uint256"
        }
      ],
      "stateMutability": "view",
      "type": "function"
    },
    {
      "inputs": [
        {
          "internalType": "address",
          "name": "to",
          "type": "address"
        },
        {
          "internalType": "uint256",
          "name": "amount",
          "type": "uint256"
        }
      ],
      "name": "transfer",
      "outputs": [
        {
          "internalType": "bool",
          "name": "",
          "type": "bool"
        }
      ],
      "stateMutability": "nonpayable",
      "type": "function"
    },
    {
      "inputs": [
        {
          "internalType": "address",
          "name": "from",
          "type": "address"
        },
        {
          "internalType": "address",
          "name": "to",
          "type": "address"
        },
        {
          "internalType": "uint256",
          "name": "amount",
          "type": "uint256"
        }
      ],
      "name": "transferFrom",
      "outputs": [
        {
          "internalType": "bool",
          "name": "",
          "type": "bool"
        }
      ],
      "stateMutability": "nonpayable",
      "type": "function"
    },
    {
      "inputs": [
        {
          "internalType": "address",
          "name": "newOwner",
          "type": "address"
        }
      ],
      "name": "transferOwnership",
      "outputs": [],
      "stateMutability": "nonpayable",
      "type": "function"
    }
  ],
  "bytecode": "0x60806040523480156200001157600080fd5b506040518060400160405280600981526020017f41504520546f6b656e00000000000000000000000000000000000000000000008152506040518060400160405280600481526020017f5341504500000000000000000000000000000000000000000000000000000000815250816003908051906020019062000096929190620001a6565b508060049080519060200190620000af929190620001a6565b505050620000d2620000c6620000d860201b60201c565b620000e060201b60201c565b620002bb565b600033905090565b6000600560009054906101000a900473ffffffffffffffffffffffffffffffffffffffff16905081600560006101000a81548173ffffffffffffffffffffffffffffffffffffffff021916908373ffffffffffffffffffffffffffffffffffffffff1602179055508173ffffffffffffffffffffffffffffffffffffffff168173ffffffffffffffffffffffffffffffffffffffff167f8be0079c531659141344cd1fd0a4f28419497f9722a3daafe3b4186f6b6457e060405160405180910390a35050565b828054620001b49062000256565b90600052602060002090601f016020900481019282620001d8576000855562000224565b82601f10620001f357805160ff191683800117855562000224565b8280016001018555821562000224579182015b828111156200022357825182559160200191906001019062000206565b5b50905062000233919062000237565b5090565b5b808211156200025257600081600090555060010162000238565b5090565b600060028204905060018216806200026f57607f821691505b602082108114156200028657620002856200028c565b5b50919050565b7f4e487b7100000000000000000000000000000000000000000000000000000000600052602260045260246000fd5b611e3580620002cb6000396000f3fe6080604052600436106101095760003560e01c8063715018a611610095578063a457c2d711610064578063a457c2d71461036b578063a9059cbb146103a8578063dd62ed3e146103e5578063e0dba60f14610422578063f2fde38b1461043e57610109565b8063715018a6146102d557806379cc6790146102ec5780638da5cb5b1461031557806395d89b411461034057610109565b8063313ce567116100dc578063313ce567146101de578063395093511461020957806340c10f191461024657806342966c681461026f57806370a082311461029857610109565b806306fdde031461010e578063095ea7b31461013957806318160ddd1461017657806323b872dd146101a1575b600080fd5b34801561011a57600080fd5b50610123610467565b6040516101309190611700565b60405180910390f35b34801561014557600080fd5b50610160600480360381019061015b9190611444565b6104f9565b60405161016d91906116e5565b60405180910390f35b34801561018257600080fd5b5061018b61051c565b60405161019891906118a2565b60405180910390f35b3480156101ad57600080fd5b506101c860048036038101906101c391906113b1565b610526565b6040516101d591906116e5565b60405180910390f35b3480156101ea57600080fd5b506101f3610555565b60405161020091906118bd565b60405180910390f35b34801561021557600080fd5b50610230600480360381019061022b9190611444565b61055e565b60405161023d91906116e5565b60405180910390f35b34801561025257600080fd5b5061026d60048036038101906102689190611444565b610595565b005b34801561027b57600080fd5b5061029660048036038101906102919190611484565b610626565b005b3480156102a457600080fd5b506102bf60048036038101906102ba9190611344565b61063a565b6040516102cc91906118a2565b60405180910390f35b3480156102e157600080fd5b506102ea610682565b005b3480156102f857600080fd5b50610313600480360381019061030e9190611444565b610696565b005b34801561032157600080fd5b5061032a6106f7565b60405161033791906116ca565b60405180910390f35b34801561034c57600080fd5b50610355610721565b6040516103629190611700565b60405180910390f35b34801561037757600080fd5b50610392600480360381019061038d9190611444565b6107b3565b60405161039f91906116e5565b60405180910390f35b3480156103b457600080fd5b506103cf60048036038101906103ca9190611444565b61082a565b6040516103dc91906116e5565b60405180910390f35b3480156103f157600080fd5b5061040c60048036038101906104079190611371565b61084d565b60405161041991906118a2565b60405180910390f35b61043c60048036038101906104379190611404565b6108d4565b005b34801561044a57600080fd5b5061046560048036038101906104609190611344565b610937565b005b606060038054610476906119d2565b80601f01602080910402602001604051908101604052809291908181526020018280546104a2906119d2565b80156104ef5780601f106104c4576101008083540402835291602001916104ef565b820191906000526020600020905b8154815290600101906020018083116104d257829003601f168201915b5050505050905090565b6000806105046109bb565b90506105118185856109c3565b600191505092915050565b6000600254905090565b6000806105316109bb565b905061053e858285610b8e565b610549858585610c1a565b60019150509392505050565b60006012905090565b6000806105696109bb565b905061058a81858561057b858961084d565b61058591906118f4565b6109c3565b600191505092915050565b600660003373ffffffffffffffffffffffffffffffffffffffff1673ffffffffffffffffffffffffffffffffffffffff16815260200190815260200160002060009054906101000a900460ff16610618576040517f7c89efac00000000000000000000000000000000000000000000000000000000815260040160405180910390fd5b6106228282610e92565b5050565b6106376106316109bb565b82610fe9565b50565b60008060008373ffffffffffffffffffffffffffffffffffffffff1673ffffffffffffffffffffffffffffffffffffffff168152602001908152602001600020549050919050565b61068a6111b7565b6106946000611235565b565b600660003373ffffffffffffffffffffffffffffffffffffffff1673ffffffffffffffffffffffffffffffffffffffff16815260200190815260200160002060009054906101000a900460ff16156106f3576106f28282610fe9565b5b5050565b6000600560009054906101000a900473ffffffffffffffffffffffffffffffffffffffff16905090565b606060048054610730906119d2565b80601f016020809104026020016040519081016040528092919081815260200182805461075c906119d2565b80156107a95780601f1061077e576101008083540402835291602001916107a9565b820191906000526020600020905b81548152906001019060200180831161078c57829003601f168201915b5050505050905090565b6000806107be6109bb565b905060006107cc828661084d565b905083811015610811576040517f08c379a000000000000000000000000000000000000000000000000000000000815260040161080890611862565b60405180910390fd5b61081e82868684036109c3565b60019250505092915050565b6000806108356109bb565b9050610842818585610c1a565b600191505092915050565b6000600160008473ffffffffffffffffffffffffffffffffffffffff1673ffffffffffffffffffffffffffffffffffffffff16815260200190815260200160002060008373ffffffffffffffffffffffffffffffffffffffff1673ffffffffffffffffffffffffffffffffffffffff16815260200190815260200160002054905092915050565b6108dc6111b7565b80600660008473ffffffffffffffffffffffffffffffffffffffff1673ffffffffffffffffffffffffffffffffffffffff16815260200190815260200160002060006101000a81548160ff0219169083151502179055505050565b61093f6111b7565b600073ffffffffffffffffffffffffffffffffffffffff168173ffffffffffffffffffffffffffffffffffffffff1614156109af576040517f08c379a00000000000000000000000000000000000000000000000000000000081526004016109a690611762565b60405180910390fd5b6109b881611235565b50565b600033905090565b600073ffffffffffffffffffffffffffffffffffffffff168373ffffffffffffffffffffffffffffffffffffffff161415610a33576040517f08c379a0000000000000000000000000000000000000000000000000000000008152600401610a2a90611842565b60405180910390fd5b600073ffffffffffffffffffffffffffffffffffffffff168273ffffffffffffffffffffffffffffffffffffffff161415610aa3576040517f08c379a0000000000000000000000000000000000000000000000000000000008152600401610a9a90611782565b60405180910390fd5b80600160008573ffffffffffffffffffffffffffffffffffffffff1673ffffffffffffffffffffffffffffffffffffffff16815260200190815260200160002060008473ffffffffffffffffffffffffffffffffffffffff1673ffffffffffffffffffffffffffffffffffffffff168152602001908152602001600020819055508173ffffffffffffffffffffffffffffffffffffffff168373ffffffffffffffffffffffffffffffffffffffff167f8c5be1e5ebec7d5bd14f71427d1e84f3dd0314c0f7b2291e5b200ac8c7c3b92583604051610b8191906118a2565b60405180910390a3505050565b6000610b9a848461084d565b90507fffffffffffffffffffffffffffffffffffffffffffffffffffffffffffffffff8114610c145781811015610c06576040517f08c379a0000000000000000000000000000000000000000000000000000000008152600401610bfd906117a2565b60405180910390fd5b610c1384848484036109c3565b5b50505050565b600073ffffffffffffffffffffffffffffffffffffffff168373ffffffffffffffffffffffffffffffffffffffff161415610c8a576040517f08c379a0000000000000000000000000000000000000000000000000000000008152600401610c8190611822565b60405180910390fd5b600073ffffffffffffffffffffffffffffffffffffffff168273ffffffffffffffffffffffffffffffffffffffff161415610cfa576040517f08c379a0000000000000000000000000000000000000000000000000000000008152600401610cf190611722565b60405180910390fd5b610d058383836112fb565b60008060008573ffffffffffffffffffffffffffffffffffffffff1673ffffffffffffffffffffffffffffffffffffffff16815260200190815260200160002054905081811015610d8b576040517f08c379a0000000000000000000000000000000000000000000000000000000008152600401610d82906117c2565b60405180910390fd5b8181036000808673ffffffffffffffffffffffffffffffffffffffff1673ffffffffffffffffffffffffffffffffffffffff16815260200190815260200160002081905550816000808573ffffffffffffffffffffffffffffffffffffffff1673ffffffffffffffffffffffffffffffffffffffff168152602001908152602001600020600082825401925050819055508273ffffffffffffffffffffffffffffffffffffffff168473ffffffffffffffffffffffffffffffffffffffff167fddf252ad1be2c89b69c2b068fc378daa952ba7f163c4a11628f55a4df523b3ef84604051610e7991906118a2565b60405180910390a3610e8c848484611300565b50505050565b600073ffffffffffffffffffffffffffffffffffffffff168273ffffffffffffffffffffffffffffffffffffffff161415610f02576040517f08c379a0000000000000000000000000000000000000000000000000000000008152600401610ef990611882565b60405180910390fd5b610f0e600083836112fb565b8060026000828254610f2091906118f4565b92505081905550806000808473ffffffffffffffffffffffffffffffffffffffff1673ffffffffffffffffffffffffffffffffffffffff168152602001908152602001600020600082825401925050819055508173ffffffffffffffffffffffffffffffffffffffff16600073ffffffffffffffffffffffffffffffffffffffff167fddf252ad1be2c89b69c2b068fc378daa952ba7f163c4a11628f55a4df523b3ef83604051610fd191906118a2565b60405180910390a3610fe560008383611300565b5050565b600073ffffffffffffffffffffffffffffffffffffffff168273ffffffffffffffffffffffffffffffffffffffff161415611059576040517f08c379a000000000000000000000000000000000000000000000000000000000815260040161105090611802565b60405180910390fd5b611065826000836112fb565b60008060008473ffffffffffffffffffffffffffffffffffffffff1673ffffffffffffffffffffffffffffffffffffffff168152602001908152602001600020549050818110156110eb576040517f08c379a00000000000000000000000000000000000000000000000000000000081526004016110e290611742565b60405180910390fd5b8181036000808573ffffffffffffffffffffffffffffffffffffffff1673ffffffffffffffffffffffffffffffffffffffff1681526020019081526020016000208190555081600260008282540392505081905550600073ffffffffffffffffffffffffffffffffffffffff168373ffffffffffffffffffffffffffffffffffffffff167fddf252ad1be2c89b69c2b068fc378daa952ba7f163c4a11628f55a4df523b3ef8460405161119e91906118a2565b60405180910390a36111b283600084611300565b505050565b6111bf6109bb565b73ffffffffffffffffffffffffffffffffffffffff166111dd6106f7565b73ffffffffffffffffffffffffffffffffffffffff1614611233576040517f08c379a000000000000000000000000000000000000000000000000000000000815260040161122a906117e2565b60405180910390fd5b565b6000600560009054906101000a900473ffffffffffffffffffffffffffffffffffffffff16905081600560006101000a81548173ffffffffffffffffffffffffffffffffffffffff021916908373ffffffffffffffffffffffffffffffffffffffff1602179055508173ffffffffffffffffffffffffffffffffffffffff168173ffffffffffffffffffffffffffffffffffffffff167f8be0079c531659141344cd1fd0a4f28419497f9722a3daafe3b4186f6b6457e060405160405180910390a35050565b505050565b505050565b60008135905061131481611dba565b92915050565b60008135905061132981611dd1565b92915050565b60008135905061133e81611de8565b92915050565b60006020828403121561135a57611359611a62565b5b600061136884828501611305565b91505092915050565b6000806040838503121561138857611387611a62565b5b600061139685828601611305565b92505060206113a785828601611305565b9150509250929050565b6000806000606084860312156113ca576113c9611a62565b5b60006113d886828701611305565b93505060206113e986828701611305565b92505060406113fa8682870161132f565b9150509250925092565b6000806040838503121561141b5761141a611a62565b5b600061142985828601611305565b925050602061143a8582860161131a565b9150509250929050565b6000806040838503121561145b5761145a611a62565b5b600061146985828601611305565b925050602061147a8582860161132f565b9150509250929050565b60006020828403121561149a57611499611a62565b5b60006114a88482850161132f565b91505092915050565b6114ba8161194a565b82525050565b6114c98161195c565b82525050565b60006114da826118d8565b6114e481856118e3565b93506114f481856020860161199f565b6114fd81611a67565b840191505092915050565b60006115156023836118e3565b915061152082611a78565b604082019050919050565b60006115386022836118e3565b915061154382611ac7565b604082019050919050565b600061155b6026836118e3565b915061156682611b16565b604082019050919050565b600061157e6022836118e3565b915061158982611b65565b604082019050919050565b60006115a1601d836118e3565b91506115ac82611bb4565b602082019050919050565b60006115c46026836118e3565b91506115cf82611bdd565b604082019050919050565b60006115e76020836118e3565b91506115f282611c2c565b602082019050919050565b600061160a6021836118e3565b915061161582611c55565b604082019050919050565b600061162d6025836118e3565b915061163882611ca4565b604082019050919050565b60006116506024836118e3565b915061165b82611cf3565b604082019050919050565b60006116736025836118e3565b915061167e82611d42565b604082019050919050565b6000611696601f836118e3565b91506116a182611d91565b602082019050919050565b6116b581611988565b82525050565b6116c481611992565b82525050565b60006020820190506116df60008301846114b1565b92915050565b60006020820190506116fa60008301846114c0565b92915050565b6000602082019050818103600083015261171a81846114cf565b905092915050565b6000602082019050818103600083015261173b81611508565b9050919050565b6000602082019050818103600083015261175b8161152b565b9050919050565b6000602082019050818103600083015261177b8161154e565b9050919050565b6000602082019050818103600083015261179b81611571565b9050919050565b600060208201905081810360008301526117bb81611594565b9050919050565b600060208201905081810360008301526117db816115b7565b9050919050565b600060208201905081810360008301526117fb816115da565b9050919050565b6000602082019050818103600083015261181b816115fd565b9050919050565b6000602082019050818103600083015261183b81611620565b9050919050565b6000602082019050818103600083015261185b81611643565b9050919050565b6000602082019050818103600083015261187b81611666565b9050919050565b6000602082019050818103600083015261189b81611689565b9050919050565b60006020820190506118b760008301846116ac565b92915050565b60006020820190506118d260008301846116bb565b92915050565b600081519050919050565b600082825260208201905092915050565b60006118ff82611988565b915061190a83611988565b9250827fffffffffffffffffffffffffffffffffffffffffffffffffffffffffffffffff0382111561193f5761193e611a04565b5b828201905092915050565b600061195582611968565b9050919050565b60008115159050919050565b600073ffffffffffffffffffffffffffffffffffffffff82169050919050565b6000819050919050565b600060ff82169050919050565b60005b838110156119bd5780820151818401526020810190506119a2565b838111156119cc576000848401525b50505050565b600060028204905060018216806119ea57607f821691505b602082108114156119fe576119fd611a33565b5b50919050565b7f4e487b7100000000000000000000000000000000000000000000000000000000600052601160045260246000fd5b7f4e487b7100000000000000000000000000000000000000000000000000000000600052602260045260246000fd5b600080fd5b6000601f19601f8301169050919050565b7f45524332303a207472616e7366657220746f20746865207a65726f206164647260008201527f6573730000000000000000000000000000000000000000000000000000000000602082015250565b7f45524332303a206275726e20616d6f756e7420657863656564732062616c616e60008201527f6365000000000000000000000000000000000000000000000000000000000000602082015250565b7f4f776e61626c653a206e6577206f776e657220697320746865207a65726f206160008201527f6464726573730000000000000000000000000000000000000000000000000000602082015250565b7f45524332303a20617070726f766520746f20746865207a65726f20616464726560008201527f7373000000000000000000000000000000000000000000000000000000000000602082015250565b7f45524332303a20696e73756666696369656e7420616c6c6f77616e6365000000600082015250565b7f45524332303a207472616e7366657220616d6f756e742065786365656473206260008201527f616c616e63650000000000000000000000000000000000000000000000000000602082015250565b7f4f776e61626c653a2063616c6c6572206973206e6f7420746865206f776e6572600082015250565b7f45524332303a206275726e2066726f6d20746865207a65726f2061646472657360008201527f7300000000000000000000000000000000000000000000000000000000000000602082015250565b7f45524332303a207472616e736665722066726f6d20746865207a65726f20616460008201527f6472657373000000000000000000000000000000000000000000000000000000602082015250565b7f45524332303a20617070726f76652066726f6d20746865207a65726f2061646460008201527f7265737300000000000000000000000000000000000000000000000000000000602082015250565b7f45524332303a2064656372656173656420616c6c6f77616e63652062656c6f7760008201527f207a65726f000000000000000000000000000000000000000000000000000000602082015250565b7f45524332303a206d696e7420746f20746865207a65726f206164647265737300600082015250565b611dc38161194a565b8114611dce57600080fd5b50565b611dda8161195c565b8114611de557600080fd5b50565b611df181611988565b8114611dfc57600080fd5b5056fea26469706673582212205dec6355e2c3111dd547ae2e6555841f84b310b87f01b69c7f81e83611cee54e64736f6c63430008070033",
  "linkReferences": {},
  "deployedLinkReferences": {}
}