{
  "_format": "hh-sol-artifact-1",
  "contractName": "APE",
  "sourceName": "contracts/APE.sol",
  "abi": [
    {
      "inputs": [
        {
          "internalType": "uint256",
          "name": "_maxSupply",
          "type": "uint256"
        },
        {
          "internalType": "uint256",
          "name": "_cost",
          "type": "uint256"
        },
        {
          "internalType": "uint256",
          "name": "_maxMintAmountPerTx",
          "type": "uint256"
        }
      ],
      "stateMutability": "nonpayable",
      "type": "constructor"
    },
    {
      "inputs": [],
      "name": "APE__ContractIsPaused",
      "type": "error"
    },
    {
      "inputs": [],
      "name": "APE__InsufficientFunds",
      "type": "error"
    },
    {
      "inputs": [],
      "name": "APE__InvalidMintAmount",
      "type": "error"
    },
    {
      "inputs": [],
      "name": "APE__MaxMintAmountExceeded",
      "type": "error"
    },
    {
      "inputs": [],
      "name": "APE__NftSupplyLimitExceeded",
      "type": "error"
    },
    {
      "inputs": [],
      "name": "APE__QueryForNonExistentToken",
      "type": "error"
    },
    {
      "inputs": [],
      "name": "ApprovalCallerNotOwnerNorApproved",
      "type": "error"
    },
    {
      "inputs": [],
      "name": "ApprovalQueryForNonexistentToken",
      "type": "error"
    },
    {
      "inputs": [],
      "name": "BalanceQueryForZeroAddress",
      "type": "error"
    },
    {
      "inputs": [],
      "name": "InvalidQueryRange",
      "type": "error"
    },
    {
      "inputs": [],
      "name": "MintERC2309QuantityExceedsLimit",
      "type": "error"
    },
    {
      "inputs": [],
      "name": "MintToZeroAddress",
      "type": "error"
    },
    {
      "inputs": [],
      "name": "MintZeroQuantity",
      "type": "error"
    },
    {
      "inputs": [],
      "name": "NotCompatibleWithSpotMints",
      "type": "error"
    },
    {
      "inputs": [],
      "name": "OwnerQueryForNonexistentToken",
      "type": "error"
    },
    {
      "inputs": [],
      "name": "OwnershipNotInitializedForExtraData",
      "type": "error"
    },
    {
      "inputs": [],
      "name": "SequentialMintExceedsLimit",
      "type": "error"
    },
    {
      "inputs": [],
      "name": "SequentialUpToTooSmall",
      "type": "error"
    },
    {
      "inputs": [],
      "name": "SpotMintTokenIdTooSmall",
      "type": "error"
    },
    {
      "inputs": [],
      "name": "TokenAlreadyExists",
      "type": "error"
    },
    {
      "inputs": [],
      "name": "TransferCallerNotOwnerNorApproved",
      "type": "error"
    },
    {
      "inputs": [],
      "name": "TransferFromIncorrectOwner",
      "type": "error"
    },
    {
      "inputs": [],
      "name": "TransferToNonERC721ReceiverImplementer",
      "type": "error"
    },
    {
      "inputs": [],
      "name": "TransferToZeroAddress",
      "type": "error"
    },
    {
      "inputs": [],
      "name": "URIQueryForNonexistentToken",
      "type": "error"
    },
    {
      "anonymous": false,
      "inputs": [
        {
          "indexed": true,
          "internalType": "address",
          "name": "owner",
          "type": "address"
        },
        {
          "indexed": true,
          "internalType": "address",
          "name": "approved",
          "type": "address"
        },
        {
          "indexed": true,
          "internalType": "uint256",
          "name": "tokenId",
          "type": "uint256"
        }
      ],
      "name": "Approval",
      "type": "event"
    },
    {
      "anonymous": false,
      "inputs": [
        {
          "indexed": true,
          "internalType": "address",
          "name": "owner",
          "type": "address"
        },
        {
          "indexed": true,
          "internalType": "address",
          "name": "operator",
          "type": "address"
        },
        {
          "indexed": false,
          "internalType": "bool",
          "name": "approved",
          "type": "bool"
        }
      ],
      "name": "ApprovalForAll",
      "type": "event"
    },
    {
      "anonymous": false,
      "inputs": [
        {
          "indexed": true,
          "internalType": "uint256",
          "name": "fromTokenId",
          "type": "uint256"
        },
        {
          "indexed": false,
          "internalType": "uint256",
          "name": "toTokenId",
          "type": "uint256"
        },
        {
          "indexed": true,
          "internalType": "address",
          "name": "from",
          "type": "address"
        },
        {
          "indexed": true,
          "internalType": "address",
          "name": "to",
          "type": "address"
        }
      ],
      "name": "ConsecutiveTransfer",
      "type": "event"
    },
    {
      "anonymous": false,
      "inputs": [
        {
          "indexed": true,
          "internalType": "address",
          "name": "previousOwner",
          "type": "address"
        },
        {
          "indexed": true,
          "internalType": "address",
          "name": "newOwner",
          "type": "address"
        }
      ],
      "name": "OwnershipTransferred",
      "type": "event"
    },
    {
      "anonymous": false,
      "inputs": [
        {
          "indexed": true,
          "internalType": "address",
          "name": "from",
          "type": "address"
        },
        {
          "indexed": true,
          "internalType": "address",
          "name": "to",
          "type": "address"
        },
        {
          "indexed": true,
          "internalType": "uint256",
          "name": "tokenId",
          "type": "uint256"
        }
      ],
      "name": "Transfer",
      "type": "event"
    },
    {
      "inputs": [
        {
          "internalType": "address",
          "name": "to",
          "type": "address"
        },
        {
          "internalType": "uint256",
          "name": "tokenId",
          "type": "uint256"
        }
      ],
      "name": "approve",
      "outputs": [],
      "stateMutability": "payable",
      "type": "function"
    },
    {
      "inputs": [
        {
          "internalType": "address",
          "name": "owner",
          "type": "address"
        }
      ],
      "name": "balanceOf",
      "outputs": [
        {
          "internalType": "uint256",
          "name": "",
          "type": "uint256"
        }
      ],
      "stateMutability": "view",
      "type": "function"
    },
    {
      "inputs": [],
      "name": "baseExtension",
      "outputs": [
        {
          "internalType": "string",
          "name": "",
          "type": "string"
        }
      ],
      "stateMutability": "view",
      "type": "function"
    },
    {
      "inputs": [],
      "name": "baseURI",
      "outputs": [
        {
          "internalType": "string",
          "name": "",
          "type": "string"
        }
      ],
      "stateMutability": "view",
      "type": "function"
    },
    {
      "inputs": [],
      "name": "cost",
      "outputs": [
        {
          "internalType": "uint256",
          "name": "",
          "type": "uint256"
        }
      ],
      "stateMutability": "view",
      "type": "function"
    },
    {
      "inputs": [
        {
          "internalType": "uint256",
          "name": "tokenId",
          "type": "uint256"
        }
      ],
      "name": "explicitOwnershipOf",
      "outputs": [
        {
          "components": [
            {
              "internalType": "address",
              "name": "addr",
              "type": "address"
            },
            {
              "internalType": "uint64",
              "name": "startTimestamp",
              "type": "uint64"
            },
            {
              "internalType": "bool",
              "name": "burned",
              "type": "bool"
            },
            {
              "internalType": "uint24",
              "name": "extraData",
              "type": "uint24"
            }
          ],
          "internalType": "struct IERC721A.TokenOwnership",
          "name": "ownership",
          "type": "tuple"
        }
      ],
      "stateMutability": "view",
      "type": "function"
    },
    {
      "inputs": [
        {
          "internalType": "uint256[]",
          "name": "tokenIds",
          "type": "uint256[]"
        }
      ],
      "name": "explicitOwnershipsOf",
      "outputs": [
        {
          "components": [
            {
              "internalType": "address",
              "name": "addr",
              "type": "address"
            },
            {
              "internalType": "uint64",
              "name": "startTimestamp",
              "type": "uint64"
            },
            {
              "internalType": "bool",
              "name": "burned",
              "type": "bool"
            },
            {
              "internalType": "uint24",
              "name": "extraData",
              "type": "uint24"
            }
          ],
          "internalType": "struct IERC721A.TokenOwnership[]",
          "name": "",
          "type": "tuple[]"
        }
      ],
      "stateMutability": "view",
      "type": "function"
    },
    {
      "inputs": [
        {
          "internalType": "uint256",
          "name": "tokenId",
          "type": "uint256"
        }
      ],
      "name": "getApproved",
      "outputs": [
        {
          "internalType": "address",
          "name": "",
          "type": "address"
        }
      ],
      "stateMutability": "view",
      "type": "function"
    },
    {
      "inputs": [
        {
          "internalType": "address",
          "name": "owner",
          "type": "address"
        },
        {
          "internalType": "address",
          "name": "operator",
          "type": "address"
        }
      ],
      "name": "isApprovedForAll",
      "outputs": [
        {
          "internalType": "bool",
          "name": "",
          "type": "bool"
        }
      ],
      "stateMutability": "view",
      "type": "function"
    },
    {
      "inputs": [],
      "name": "maxMintAmountPerTx",
      "outputs": [
        {
          "internalType": "uint256",
          "name": "",
          "type": "uint256"
        }
      ],
      "stateMutability": "view",
      "type": "function"
    },
    {
      "inputs": [],
      "name": "maxSupply",
      "outputs": [
        {
          "internalType": "uint256",
          "name": "",
          "type": "uint256"
        }
      ],
      "stateMutability": "view",
      "type": "function"
    },
    {
      "inputs": [
        {
          "internalType": "uint256",
          "name": "_mintAmount",
          "type": "uint256"
        }
      ],
      "name": "mint",
      "outputs": [],
      "stateMutability": "payable",
      "type": "function"
    },
    {
      "inputs": [],
      "name": "name",
      "outputs": [
        {
          "internalType": "string",
          "name": "",
          "type": "string"
        }
      ],
      "stateMutability": "view",
      "type": "function"
    },
    {
      "inputs": [],
      "name": "owner",
      "outputs": [
        {
          "internalType": "address",
          "name": "",
          "type": "address"
        }
      ],
      "stateMutability": "view",
      "type": "function"
    },
    {
      "inputs": [
        {
          "internalType": "uint256",
          "name": "tokenId",
          "type": "uint256"
        }
      ],
      "name": "ownerOf",
      "outputs": [
        {
          "internalType": "address",
          "name": "",
          "type": "address"
        }
      ],
      "stateMutability": "view",
      "type": "function"
    },
    {
      "inputs": [
        {
          "internalType": "uint256",
          "name": "_state",
          "type": "uint256"
        }
      ],
      "name": "pause",
      "outputs": [],
      "stateMutability": "payable",
      "type": "function"
    },
    {
      "inputs": [],
      "name": "paused",
      "outputs": [
        {
          "internalType": "uint256",
          "name": "",
          "type": "uint256"
        }
      ],
      "stateMutability": "view",
      "type": "function"
    },
    {
      "inputs": [],
      "name": "renounceOwnership",
      "outputs": [],
      "stateMutability": "nonpayable",
      "type": "function"
    },
    {
      "inputs": [
        {
          "internalType": "address",
          "name": "from",
          "type": "address"
        },
        {
          "internalType": "address",
          "name": "to",
          "type": "address"
        },
        {
          "internalType": "uint256",
          "name": "tokenId",
          "type": "uint256"
        }
      ],
      "name": "safeTransferFrom",
      "outputs": [],
      "stateMutability": "payable",
      "type": "function"
    },
    {
      "inputs": [
        {
          "internalType": "address",
          "name": "from",
          "type": "address"
        },
        {
          "internalType": "address",
          "name": "to",
          "type": "address"
        },
        {
          "internalType": "uint256",
          "name": "tokenId",
          "type": "uint256"
        },
        {
          "internalType": "bytes",
          "name": "_data",
          "type": "bytes"
        }
      ],
      "name": "safeTransferFrom",
      "outputs": [],
      "stateMutability": "payable",
      "type": "function"
    },
    {
      "inputs": [
        {
          "internalType": "address",
          "name": "operator",
          "type": "address"
        },
        {
          "internalType": "bool",
          "name": "approved",
          "type": "bool"
        }
      ],
      "name": "setApprovalForAll",
      "outputs": [],
      "stateMutability": "nonpayable",
      "type": "function"
    },
    {
      "inputs": [
        {
          "internalType": "string",
          "name": "_newBaseURI",
          "type": "string"
        }
      ],
      "name": "setBaseURI",
      "outputs": [],
      "stateMutability": "payable",
      "type": "function"
    },
    {
      "inputs": [
        {
          "internalType": "uint256",
          "name": "_newCost",
          "type": "uint256"
        }
      ],
      "name": "setCost",
      "outputs": [],
      "stateMutability": "payable",
      "type": "function"
    },
    {
      "inputs": [
        {
          "internalType": "uint256",
          "name": "_newmaxMintAmount",
          "type": "uint256"
        }
      ],
      "name": "setMaxMintAmountPerTx",
      "outputs": [],
      "stateMutability": "payable",
      "type": "function"
    },
    {
      "inputs": [
        {
          "internalType": "bytes4",
          "name": "interfaceId",
          "type": "bytes4"
        }
      ],
      "name": "supportsInterface",
      "outputs": [
        {
          "internalType": "bool",
          "name": "",
          "type": "bool"
        }
      ],
      "stateMutability": "view",
      "type": "function"
    },
    {
      "inputs": [],
      "name": "symbol",
      "outputs": [
        {
          "internalType": "string",
          "name": "",
          "type": "string"
        }
      ],
      "stateMutability": "view",
      "type": "function"
    },
    {
      "inputs": [
        {
          "internalType": "uint256",
          "name": "tokenId",
          "type": "uint256"
        }
      ],
      "name": "tokenURI",
      "outputs": [
        {
          "internalType": "string",
          "name": "",
          "type": "string"
        }
      ],
      "stateMutability": "view",
      "type": "function"
    },
    {
      "inputs": [
        {
          "internalType": "address",
          "name": "owner",
          "type": "address"
        }
      ],
      "name": "tokensOfOwner",
      "outputs": [
        {
          "internalType": "uint256[]",
          "name": "",
          "type": "uint256[]"
        }
      ],
      "stateMutability": "view",
      "type": "function"
    },
    {
      "inputs": [
        {
          "internalType": "address",
          "name": "owner",
          "type": "address"
        },
        {
          "internalType": "uint256",
          "name": "start",
          "type": "uint256"
        },
        {
          "internalType": "uint256",
          "name": "stop",
          "type": "uint256"
        }
      ],
      "name": "tokensOfOwnerIn",
      "outputs": [
        {
          "internalType": "uint256[]",
          "name": "",
          "type": "uint256[]"
        }
      ],
      "stateMutability": "view",
      "type": "function"
    },
    {
      "inputs": [],
      "name": "totalSupply",
      "outputs": [
        {
          "internalType": "uint256",
          "name": "result",
          "type": "uint256"
        }
      ],
      "stateMutability": "view",
      "type": "function"
    },
    {
      "inputs": [
        {
          "internalType": "address",
          "name": "from",
          "type": "address"
        },
        {
          "internalType": "address",
          "name": "to",
          "type": "address"
        },
        {
          "internalType": "uint256",
          "name": "tokenId",
          "type": "uint256"
        }
      ],
      "name": "transferFrom",
      "outputs": [],
      "stateMutability": "payable",
      "type": "function"
    },
    {
      "inputs": [
        {
          "internalType": "address",
          "name": "newOwner",
          "type": "address"
        }
      ],
      "name": "transferOwnership",
      "outputs": [],
      "stateMutability": "nonpayable",
      "type": "function"
    },
    {
      "inputs": [],
      "name": "withdraw",
      "outputs": [],
      "stateMutability": "payable",
      "type": "function"
    }
  ],
  "bytecode": "0x60a06040526001600d553480156200001657600080fd5b50604051620038f3380380620038f383398181016040528101906200003c91906200033d565b6040518060400160405280600f81526020017f41504520436f6c6c65637469626c6500000000000000000000000000000000008152506040518060400160405280600381526020017f41504500000000000000000000000000000000000000000000000000000000008152508160029080519060200190620000c092919062000276565b508060039080519060200190620000d992919062000276565b50620000ea6200017160201b60201c565b600081905550620001006200017160201b60201c565b620001106200017660201b60201c565b101562000130576200012f63fed8210f60e01b6200019e60201b60201c565b5b50506200015262000146620001a860201b60201c565b620001b060201b60201c565b81600b8190555080600c81905550826080818152505050505062000427565b600090565b60007fffffffffffffffffffffffffffffffffffffffffffffffffffffffffffffffff905090565b8060005260046000fd5b600033905090565b6000600960009054906101000a900473ffffffffffffffffffffffffffffffffffffffff16905081600960006101000a81548173ffffffffffffffffffffffffffffffffffffffff021916908373ffffffffffffffffffffffffffffffffffffffff1602179055508173ffffffffffffffffffffffffffffffffffffffff168173ffffffffffffffffffffffffffffffffffffffff167f8be0079c531659141344cd1fd0a4f28419497f9722a3daafe3b4186f6b6457e060405160405180910390a35050565b8280546200028490620003a3565b90600052602060002090601f016020900481019282620002a85760008555620002f4565b82601f10620002c357805160ff1916838001178555620002f4565b82800160010185558215620002f4579182015b82811115620002f3578251825591602001919060010190620002d6565b5b50905062000303919062000307565b5090565b5b808211156200032257600081600090555060010162000308565b5090565b60008151905062000337816200040d565b92915050565b60008060006060848603121562000359576200035862000408565b5b6000620003698682870162000326565b93505060206200037c8682870162000326565b92505060406200038f8682870162000326565b9150509250925092565b6000819050919050565b60006002820490506001821680620003bc57607f821691505b60208210811415620003d357620003d2620003d9565b5b50919050565b7f4e487b7100000000000000000000000000000000000000000000000000000000600052602260045260246000fd5b600080fd5b620004188162000399565b81146200042457600080fd5b50565b6080516134a96200044a600039600081816110d001526114c601526134a96000f3fe6080604052600436106101ee5760003560e01c806370a082311161010d578063a22cb465116100a0578063c66828621161006f578063c668286214610679578063c87b56dd146106a4578063d5abeb01146106e1578063e985e9c51461070c578063f2fde38b14610749576101ee565b8063a22cb465146105db578063b071401b14610604578063b88d4fde14610620578063c23dc68f1461063c576101ee565b806394354fd0116100dc57806394354fd01461052c57806395d89b411461055757806399a2557a14610582578063a0712d68146105bf576101ee565b806370a0823114610470578063715018a6146104ad5780638462151c146104c45780638da5cb5b14610501576101ee565b80633ccfd60b116101855780635bbb2177116101545780635bbb2177146103a05780635c975abb146103dd5780636352211e146104085780636c0360eb14610445576101ee565b80633ccfd60b1461034257806342842e0e1461034c57806344a0d68a1461036857806355f804b314610384576101ee565b8063136439dd116101c1578063136439dd146102b457806313faede6146102d057806318160ddd146102fb57806323b872dd14610326576101ee565b806301ffc9a7146101f357806306fdde0314610230578063081812fc1461025b578063095ea7b314610298575b600080fd5b3480156101ff57600080fd5b5061021a60048036038101906102159190612995565b610772565b6040516102279190612e70565b60405180910390f35b34801561023c57600080fd5b50610245610804565b6040516102529190612e8b565b60405180910390f35b34801561026757600080fd5b50610282600480360381019061027d9190612a38565b610896565b60405161028f9190612dc5565b60405180910390f35b6102b260048036038101906102ad91906128b5565b6108f4565b005b6102ce60048036038101906102c99190612a38565b610904565b005b3480156102dc57600080fd5b506102e5610916565b6040516102f29190612f08565b60405180910390f35b34801561030757600080fd5b5061031061091c565b60405161031d9190612f08565b60405180910390f35b610340600480360381019061033b919061279f565b610969565b005b61034a610c2d565b005b6103666004803603810190610361919061279f565b610cb5565b005b610382600480360381019061037d9190612a38565b610cd5565b005b61039e600480360381019061039991906129ef565b610ce7565b005b3480156103ac57600080fd5b506103c760048036038101906103c29190612948565b610d09565b6040516103d49190612e2c565b60405180910390f35b3480156103e957600080fd5b506103f2610d69565b6040516103ff9190612f08565b60405180910390f35b34801561041457600080fd5b5061042f600480360381019061042a9190612a38565b610d6f565b60405161043c9190612dc5565b60405180910390f35b34801561045157600080fd5b5061045a610d81565b6040516104679190612e8b565b60405180910390f35b34801561047c57600080fd5b5061049760048036038101906104929190612732565b610e0f565b6040516104a49190612f08565b60405180910390f35b3480156104b957600080fd5b506104c2610ea7565b005b3480156104d057600080fd5b506104eb60048036038101906104e69190612732565b610ebb565b6040516104f89190612e4e565b60405180910390f35b34801561050d57600080fd5b50610516610f36565b6040516105239190612dc5565b60405180910390f35b34801561053857600080fd5b50610541610f60565b60405161054e9190612f08565b60405180910390f35b34801561056357600080fd5b5061056c610f66565b6040516105799190612e8b565b60405180910390f35b34801561058e57600080fd5b506105a960048036038101906105a491906128f5565b610ff8565b6040516105b69190612e4e565b60405180910390f35b6105d960048036038101906105d49190612a38565b61100e565b005b3480156105e757600080fd5b5061060260048036038101906105fd9190612875565b6111c3565b005b61061e60048036038101906106199190612a38565b6112ce565b005b61063a600480360381019061063591906127f2565b6112e0565b005b34801561064857600080fd5b50610663600480360381019061065e9190612a38565b611332565b6040516106709190612eed565b60405180910390f35b34801561068557600080fd5b5061068e6113a7565b60405161069b9190612e8b565b60405180910390f35b3480156106b057600080fd5b506106cb60048036038101906106c69190612a38565b6113e0565b6040516106d89190612e8b565b60405180910390f35b3480156106ed57600080fd5b506106f66114c4565b6040516107039190612f08565b60405180910390f35b34801561071857600080fd5b50610733600480360381019061072e919061275f565b6114e8565b6040516107409190612e70565b60405180910390f35b34801561075557600080fd5b50610770600480360381019061076b9190612732565b61157c565b005b60006301ffc9a760e01b827bffffffffffffffffffffffffffffffffffffffffffffffffffffffff191614806107cd57506380ac58cd60e01b827bffffffffffffffffffffffffffffffffffffffffffffffffffffffff1916145b806107fd5750635b5e139f60e01b827bffffffffffffffffffffffffffffffffffffffffffffffffffffffff1916145b9050919050565b6060600280546108139061321d565b80601f016020809104026020016040519081016040528092919081815260200182805461083f9061321d565b801561088c5780601f106108615761010080835404028352916020019161088c565b820191906000526020600020905b81548152906001019060200180831161086f57829003601f168201915b5050505050905090565b60006108a182611600565b6108b6576108b563cf4700e460e01b6116ad565b5b6006600083815260200190815260200160002060000160009054906101000a900473ffffffffffffffffffffffffffffffffffffffff169050919050565b610900828260016116b7565b5050565b61090c6117e6565b80600d8190555050565b600b5481565b6000610926611864565b600154600054030390507fffffffffffffffffffffffffffffffffffffffffffffffffffffffffffffffff610959611869565b1461096657600854810190505b90565b600061097482611891565b905073ffffffffffffffffffffffffffffffffffffffff8473ffffffffffffffffffffffffffffffffffffffff161693508373ffffffffffffffffffffffffffffffffffffffff168173ffffffffffffffffffffffffffffffffffffffff16146109e9576109e863a114810060e01b6116ad565b5b6000806109f5846119c0565b91509150610a0b8187610a066119e7565b6119ef565b610a3657610a2086610a1b6119e7565b6114e8565b610a3557610a346359c896be60e01b6116ad565b5b5b610a438686866001611a33565b8015610a4e57600082555b600560008773ffffffffffffffffffffffffffffffffffffffff1673ffffffffffffffffffffffffffffffffffffffff168152602001908152602001600020600081546001900391905081905550600560008673ffffffffffffffffffffffffffffffffffffffff1673ffffffffffffffffffffffffffffffffffffffff1681526020019081526020016000206000815460010191905081905550610b1c85610af8888887611a39565b7c020000000000000000000000000000000000000000000000000000000017611a61565b600460008681526020019081526020016000208190555060007c020000000000000000000000000000000000000000000000000000000084161415610ba4576000600185019050600060046000838152602001908152602001600020541415610ba2576000548114610ba1578360046000838152602001908152602001600020819055505b5b505b600073ffffffffffffffffffffffffffffffffffffffff8673ffffffffffffffffffffffffffffffffffffffff161690508481887fddf252ad1be2c89b69c2b068fc378daa952ba7f163c4a11628f55a4df523b3ef600080a46000811415610c1757610c1663ea553b3460e01b6116ad565b5b610c248787876001611a8c565b50505050505050565b610c356117e6565b6000610c3f610f36565b73ffffffffffffffffffffffffffffffffffffffff1647604051610c6290612db0565b60006040518083038185875af1925050503d8060008114610c9f576040519150601f19603f3d011682016040523d82523d6000602084013e610ca4565b606091505b5050905080610cb257600080fd5b50565b610cd0838383604051806020016040528060008152506112e0565b505050565b610cdd6117e6565b80600b8190555050565b610cef6117e6565b80600a9080519060200190610d059291906124a1565b5050565b606080600084849050905060405191508082528060051b90508060208301016040525b60008114610d5e5760006020820391508186013590506000610d4d82611332565b905080836020860101525050610d2c565b819250505092915050565b600d5481565b6000610d7a82611891565b9050919050565b600a8054610d8e9061321d565b80601f0160208091040260200160405190810160405280929190818152602001828054610dba9061321d565b8015610e075780601f10610ddc57610100808354040283529160200191610e07565b820191906000526020600020905b815481529060010190602001808311610dea57829003601f168201915b505050505081565b60008073ffffffffffffffffffffffffffffffffffffffff168273ffffffffffffffffffffffffffffffffffffffff161415610e5657610e55638f4eb60460e01b6116ad565b5b67ffffffffffffffff600560008473ffffffffffffffffffffffffffffffffffffffff1673ffffffffffffffffffffffffffffffffffffffff16815260200190815260200160002054169050919050565b610eaf6117e6565b610eb96000611a92565b565b60607fffffffffffffffffffffffffffffffffffffffffffffffffffffffffffffffff610ee6611869565b14610efc57610efb63bdba09d760e01b6116ad565b5b6000610f06611864565b90506000610f12611b58565b90506060818314610f2b57610f28858484611b61565b90505b809350505050919050565b6000600960009054906101000a900473ffffffffffffffffffffffffffffffffffffffff16905090565b600c5481565b606060038054610f759061321d565b80601f0160208091040260200160405190810160405280929190818152602001828054610fa19061321d565b8015610fee5780601f10610fc357610100808354040283529160200191610fee565b820191906000526020600020905b815481529060010190602001808311610fd157829003601f168201915b5050505050905090565b6060611005848484611b61565b90509392505050565b6001600d54141561104b576040517f4611fd0900000000000000000000000000000000000000000000000000000000815260040160405180910390fd5b6000811415611086576040517f7c9ea45b00000000000000000000000000000000000000000000000000000000815260040160405180910390fd5b600c548111156110c2576040517f0910aad000000000000000000000000000000000000000000000000000000000815260040160405180910390fd5b60006110cc61091c565b90507f000000000000000000000000000000000000000000000000000000000000000082826110fb919061306a565b1115611133576040517f638c8f2a00000000000000000000000000000000000000000000000000000000815260040160405180910390fd5b61113b610f36565b73ffffffffffffffffffffffffffffffffffffffff163373ffffffffffffffffffffffffffffffffffffffff16146111b55781600b5461117b91906130c0565b3410156111b4576040517f45ee8bec00000000000000000000000000000000000000000000000000000000815260040160405180910390fd5b5b6111bf3383611d1f565b5050565b80600760006111d06119e7565b73ffffffffffffffffffffffffffffffffffffffff1673ffffffffffffffffffffffffffffffffffffffff16815260200190815260200160002060008473ffffffffffffffffffffffffffffffffffffffff1673ffffffffffffffffffffffffffffffffffffffff16815260200190815260200160002060006101000a81548160ff0219169083151502179055508173ffffffffffffffffffffffffffffffffffffffff1661127d6119e7565b73ffffffffffffffffffffffffffffffffffffffff167f17307eab39ab6107e8899845ad3d59bd9653f200f220920489ca2b5937696c31836040516112c29190612e70565b60405180910390a35050565b6112d66117e6565b80600c8190555050565b6112eb848484610969565b60008373ffffffffffffffffffffffffffffffffffffffff163b1461132c5761131684848484611d3d565b61132b5761132a63d1a57ed660e01b6116ad565b5b5b50505050565b61133a612527565b611342611864565b82106113a157611350611869565b8211156113675761136082611e7c565b90506113a2565b61136f611b58565b8210156113a0575b61138082611ea7565b6113905781600190039150611377565b61139982611e7c565b90506113a2565b5b5b919050565b6040518060400160405280600581526020017f2e6a736f6e00000000000000000000000000000000000000000000000000000081525081565b60606113eb82611600565b611421576040517fd198d00d00000000000000000000000000000000000000000000000000000000815260040160405180910390fd5b60648261142e9190613280565b9150600061143a611ec7565b9050600081511161145a57604051806020016040528060008152506114bc565b8061146484611f59565b6040518060400160405280600581526020017f2e6a736f6e0000000000000000000000000000000000000000000000000000008152506040516020016114ac93929190612d7f565b6040516020818303038152906040525b915050919050565b7f000000000000000000000000000000000000000000000000000000000000000081565b6000600760008473ffffffffffffffffffffffffffffffffffffffff1673ffffffffffffffffffffffffffffffffffffffff16815260200190815260200160002060008373ffffffffffffffffffffffffffffffffffffffff1673ffffffffffffffffffffffffffffffffffffffff16815260200190815260200160002060009054906101000a900460ff16905092915050565b6115846117e6565b600073ffffffffffffffffffffffffffffffffffffffff168173ffffffffffffffffffffffffffffffffffffffff1614156115f4576040517f08c379a00000000000000000000000000000000000000000000000000000000081526004016115eb90612ead565b60405180910390fd5b6115fd81611a92565b50565b60008161160b611864565b116116a757611618611869565b8211156116425761163b6004600084815260200190815260200160002054612031565b90506116a8565b6000548210156116a65760005b60006004600085815260200190815260200160002054915081141561167f5782611678906131f3565b925061164f565b60007c01000000000000000000000000000000000000000000000000000000008216149150505b5b5b919050565b8060005260046000fd5b60006116c283610d6f565b905081801561170457508073ffffffffffffffffffffffffffffffffffffffff166116eb6119e7565b73ffffffffffffffffffffffffffffffffffffffff1614155b156117305761171a816117156119e7565b6114e8565b61172f5761172e63cfb3b94260e01b6116ad565b5b5b836006600085815260200190815260200160002060000160006101000a81548173ffffffffffffffffffffffffffffffffffffffff021916908373ffffffffffffffffffffffffffffffffffffffff160217905550828473ffffffffffffffffffffffffffffffffffffffff168273ffffffffffffffffffffffffffffffffffffffff167f8c5be1e5ebec7d5bd14f71427d1e84f3dd0314c0f7b2291e5b200ac8c7c3b92560405160405180910390a450505050565b6117ee612072565b73ffffffffffffffffffffffffffffffffffffffff1661180c610f36565b73ffffffffffffffffffffffffffffffffffffffff1614611862576040517f08c379a000000000000000000000000000000000000000000000000000000000815260040161185990612ecd565b60405180910390fd5b565b600090565b60007fffffffffffffffffffffffffffffffffffffffffffffffffffffffffffffffff905090565b60008161189c611864565b116119aa57600460008381526020019081526020016000205490506118bf611869565b8211156118ea576118cf81612031565b156118d9576119bb565b6118e963df2d9b4260e01b6116ad565b5b600081141561197c57600054821061190d5761190c63df2d9b4260e01b6116ad565b5b5b6004600083600190039350838152602001908152602001600020549050600081141561193957611977565b60007c010000000000000000000000000000000000000000000000000000000082161415611966576119bb565b61197663df2d9b4260e01b6116ad565b5b61190e565b60007c0100000000000000000000000000000000000000000000000000000000821614156119a9576119bb565b5b6119ba63df2d9b4260e01b6116ad565b5b919050565b60008060006006600085815260200190815260200160002090508092508254915050915091565b600033905090565b600073ffffffffffffffffffffffffffffffffffffffff8316925073ffffffffffffffffffffffffffffffffffffffff821691508382148383141790509392505050565b50505050565b60008060e883901c905060e8611a5086868461207a565b62ffffff16901b9150509392505050565b600073ffffffffffffffffffffffffffffffffffffffff83169250814260a01b178317905092915050565b50505050565b6000600960009054906101000a900473ffffffffffffffffffffffffffffffffffffffff16905081600960006101000a81548173ffffffffffffffffffffffffffffffffffffffff021916908373ffffffffffffffffffffffffffffffffffffffff1602179055508173ffffffffffffffffffffffffffffffffffffffff168173ffffffffffffffffffffffffffffffffffffffff167f8be0079c531659141344cd1fd0a4f28419497f9722a3daafe3b4186f6b6457e060405160405180910390a35050565b60008054905090565b6060818310611b7b57611b7a6332c1995a60e01b6116ad565b5b611b83611864565b831015611b9557611b92611864565b92505b6000611b9f611b58565b905060007fffffffffffffffffffffffffffffffffffffffffffffffffffffffffffffffff611bcc611869565b1415611bd85781611bda565b835b9050808410611be7578093505b6000611bf287610e0f565b9050848610611c0057600090505b60008114611d15578086860311611c175785850390505b600060405194506001820160051b85019050806040526000611c3888611332565b905060008160400151611c4d57816000015190505b60005b7fffffffffffffffffffffffffffffffffffffffffffffffffffffffffffffffff611c79611869565b14611ca957868a1415611c94576001611c90611869565b0199505b611c9c611869565b8a1115611ca857600091505b5b611cb28a611e7c565b9250604083015160008114611cca5760009250611cf0565b835115611cd657835192505b8b831860601b611cef576001820191508a8260051b8a01525b5b5060018a01995083604052888a1480611d0857508481145b15611c5057808852505050505b5050509392505050565b611d39828260405180602001604052806000815250612083565b5050565b60008373ffffffffffffffffffffffffffffffffffffffff1663150b7a02611d636119e7565b8786866040518563ffffffff1660e01b8152600401611d859493929190612de0565b602060405180830381600087803b158015611d9f57600080fd5b505af1925050508015611dd057506040513d601f19601f82011682018060405250810190611dcd91906129c2565b60015b611e29573d8060008114611e00576040519150601f19603f3d011682016040523d82523d6000602084013e611e05565b606091505b50600081511415611e2157611e2063d1a57ed660e01b6116ad565b5b805181602001fd5b63150b7a0260e01b7bffffffffffffffffffffffffffffffffffffffffffffffffffffffff1916817bffffffffffffffffffffffffffffffffffffffffffffffffffffffff191614915050949350505050565b611e84612527565b611ea060046000848152602001908152602001600020546120ff565b9050919050565b600080600460008481526020019081526020016000205414159050919050565b6060600a8054611ed69061321d565b80601f0160208091040260200160405190810160405280929190818152602001828054611f029061321d565b8015611f4f5780601f10611f2457610100808354040283529160200191611f4f565b820191906000526020600020905b815481529060010190602001808311611f3257829003601f168201915b5050505050905090565b606060006001611f68846121b5565b01905060008167ffffffffffffffff811115611f8757611f8661333e565b5b6040519080825280601f01601f191660200182016040528015611fb95781602001600182028036833780820191505090505b509050600082602001820190505b600115612026578080600190039150507f3031323334353637383961626364656600000000000000000000000000000000600a86061a8153600a85816120105761200f6132e0565b5b049450600085141561202157612026565b611fc7565b819350505050919050565b60007c0100000000000000000000000000000000000000000000000000000000821673ffffffffffffffffffffffffffffffffffffffff8316119050919050565b600033905090565b60009392505050565b61208d8383612308565b60008373ffffffffffffffffffffffffffffffffffffffff163b146120fa57600080549050600083820390505b6120cd6000868380600101945086611d3d565b6120e2576120e163d1a57ed660e01b6116ad565b5b8181106120ba5781600054146120f757600080fd5b50505b505050565b612107612527565b81816000019073ffffffffffffffffffffffffffffffffffffffff16908173ffffffffffffffffffffffffffffffffffffffff168152505060a082901c816020019067ffffffffffffffff16908167ffffffffffffffff168152505060007c01000000000000000000000000000000000000000000000000000000008316141581604001901515908115158152505060e882901c816060019062ffffff16908162ffffff1681525050919050565b600080600090507a184f03e93ff9f4daa797ed6e38ed64bf6a1f0100000000000000008310612213577a184f03e93ff9f4daa797ed6e38ed64bf6a1f0100000000000000008381612209576122086132e0565b5b0492506040810190505b6d04ee2d6d415b85acef81000000008310612250576d04ee2d6d415b85acef81000000008381612246576122456132e0565b5b0492506020810190505b662386f26fc10000831061227f57662386f26fc100008381612275576122746132e0565b5b0492506010810190505b6305f5e10083106122a8576305f5e100838161229e5761229d6132e0565b5b0492506008810190505b61271083106122cd5761271083816122c3576122c26132e0565b5b0492506004810190505b606483106122f057606483816122e6576122e56132e0565b5b0492506002810190505b600a83106122ff576001810190505b80915050919050565b60008054905060008214156123285761232763b562e8dd60e01b6116ad565b5b6123356000848385611a33565b612355836123466000866000611a39565b61234f85612491565b17611a61565b6004600083815260200190815260200160002081905550600160406001901b178202600560008573ffffffffffffffffffffffffffffffffffffffff1673ffffffffffffffffffffffffffffffffffffffff16815260200190815260200160002060008282540192505081905550600073ffffffffffffffffffffffffffffffffffffffff8473ffffffffffffffffffffffffffffffffffffffff16169050600081141561240e5761240d632e07630060e01b6116ad565b5b600083830190506000839050612422611869565b60018303111561243d5761243c6381647e3a60e01b6116ad565b5b5b808360007fddf252ad1be2c89b69c2b068fc378daa952ba7f163c4a11628f55a4df523b3ef600080a48181600101915081141561243e578160008190555050505061248c6000848385611a8c565b505050565b60006001821460e11b9050919050565b8280546124ad9061321d565b90600052602060002090601f0160209004810192826124cf5760008555612516565b82601f106124e857805160ff1916838001178555612516565b82800160010185558215612516579182015b828111156125155782518255916020019190600101906124fa565b5b5090506125239190612576565b5090565b6040518060800160405280600073ffffffffffffffffffffffffffffffffffffffff168152602001600067ffffffffffffffff168152602001600015158152602001600062ffffff1681525090565b5b8082111561258f576000816000905550600101612577565b5090565b60006125a66125a184612f48565b612f23565b9050828152602081018484840111156125c2576125c161337c565b5b6125cd8482856131b1565b509392505050565b60006125e86125e384612f79565b612f23565b9050828152602081018484840111156126045761260361337c565b5b61260f8482856131b1565b509392505050565b60008135905061262681613417565b92915050565b60008083601f84011261264257612641613372565b5b8235905067ffffffffffffffff81111561265f5761265e61336d565b5b60208301915083602082028301111561267b5761267a613377565b5b9250929050565b6000813590506126918161342e565b92915050565b6000813590506126a681613445565b92915050565b6000815190506126bb81613445565b92915050565b600082601f8301126126d6576126d5613372565b5b81356126e6848260208601612593565b91505092915050565b600082601f83011261270457612703613372565b5b81356127148482602086016125d5565b91505092915050565b60008135905061272c8161345c565b92915050565b60006020828403121561274857612747613386565b5b600061275684828501612617565b91505092915050565b6000806040838503121561277657612775613386565b5b600061278485828601612617565b925050602061279585828601612617565b9150509250929050565b6000806000606084860312156127b8576127b7613386565b5b60006127c686828701612617565b93505060206127d786828701612617565b92505060406127e88682870161271d565b9150509250925092565b6000806000806080858703121561280c5761280b613386565b5b600061281a87828801612617565b945050602061282b87828801612617565b935050604061283c8782880161271d565b925050606085013567ffffffffffffffff81111561285d5761285c613381565b5b612869878288016126c1565b91505092959194509250565b6000806040838503121561288c5761288b613386565b5b600061289a85828601612617565b92505060206128ab85828601612682565b9150509250929050565b600080604083850312156128cc576128cb613386565b5b60006128da85828601612617565b92505060206128eb8582860161271d565b9150509250929050565b60008060006060848603121561290e5761290d613386565b5b600061291c86828701612617565b935050602061292d8682870161271d565b925050604061293e8682870161271d565b9150509250925092565b6000806020838503121561295f5761295e613386565b5b600083013567ffffffffffffffff81111561297d5761297c613381565b5b6129898582860161262c565b92509250509250929050565b6000602082840312156129ab576129aa613386565b5b60006129b984828501612697565b91505092915050565b6000602082840312156129d8576129d7613386565b5b60006129e6848285016126ac565b91505092915050565b600060208284031215612a0557612a04613386565b5b600082013567ffffffffffffffff811115612a2357612a22613381565b5b612a2f848285016126ef565b91505092915050565b600060208284031215612a4e57612a4d613386565b5b6000612a5c8482850161271d565b91505092915050565b6000612a718383612c99565b60808301905092915050565b6000612a898383612d52565b60208301905092915050565b612a9e8161311a565b82525050565b612aad8161311a565b82525050565b6000612abe82612fca565b612ac88185613010565b9350612ad383612faa565b8060005b83811015612b04578151612aeb8882612a65565b9750612af683612ff6565b925050600181019050612ad7565b5085935050505092915050565b6000612b1c82612fd5565b612b268185613021565b9350612b3183612fba565b8060005b83811015612b62578151612b498882612a7d565b9750612b5483613003565b925050600181019050612b35565b5085935050505092915050565b612b788161312c565b82525050565b612b878161312c565b82525050565b6000612b9882612fe0565b612ba28185613032565b9350612bb28185602086016131c0565b612bbb8161338b565b840191505092915050565b6000612bd182612feb565b612bdb818561304e565b9350612beb8185602086016131c0565b612bf48161338b565b840191505092915050565b6000612c0a82612feb565b612c14818561305f565b9350612c248185602086016131c0565b80840191505092915050565b6000612c3d60268361304e565b9150612c488261339c565b604082019050919050565b6000612c6060208361304e565b9150612c6b826133eb565b602082019050919050565b6000612c83600083613043565b9150612c8e82613414565b600082019050919050565b608082016000820151612caf6000850182612a95565b506020820151612cc26020850182612d70565b506040820151612cd56040850182612b6f565b506060820151612ce86060850182612d43565b50505050565b608082016000820151612d046000850182612a95565b506020820151612d176020850182612d70565b506040820151612d2a6040850182612b6f565b506060820151612d3d6060850182612d43565b50505050565b612d4c81613184565b82525050565b612d5b81613193565b82525050565b612d6a81613193565b82525050565b612d798161319d565b82525050565b6000612d8b8286612bff565b9150612d978285612bff565b9150612da38284612bff565b9150819050949350505050565b6000612dbb82612c76565b9150819050919050565b6000602082019050612dda6000830184612aa4565b92915050565b6000608082019050612df56000830187612aa4565b612e026020830186612aa4565b612e0f6040830185612d61565b8181036060830152612e218184612b8d565b905095945050505050565b60006020820190508181036000830152612e468184612ab3565b905092915050565b60006020820190508181036000830152612e688184612b11565b905092915050565b6000602082019050612e856000830184612b7e565b92915050565b60006020820190508181036000830152612ea58184612bc6565b905092915050565b60006020820190508181036000830152612ec681612c30565b9050919050565b60006020820190508181036000830152612ee681612c53565b9050919050565b6000608082019050612f026000830184612cee565b92915050565b6000602082019050612f1d6000830184612d61565b92915050565b6000612f2d612f3e565b9050612f39828261324f565b919050565b6000604051905090565b600067ffffffffffffffff821115612f6357612f6261333e565b5b612f6c8261338b565b9050602081019050919050565b600067ffffffffffffffff821115612f9457612f9361333e565b5b612f9d8261338b565b9050602081019050919050565b6000819050602082019050919050565b6000819050602082019050919050565b600081519050919050565b600081519050919050565b600081519050919050565b600081519050919050565b6000602082019050919050565b6000602082019050919050565b600082825260208201905092915050565b600082825260208201905092915050565b600082825260208201905092915050565b600081905092915050565b600082825260208201905092915050565b600081905092915050565b600061307582613193565b915061308083613193565b9250827fffffffffffffffffffffffffffffffffffffffffffffffffffffffffffffffff038211156130b5576130b46132b1565b5b828201905092915050565b60006130cb82613193565b91506130d683613193565b9250817fffffffffffffffffffffffffffffffffffffffffffffffffffffffffffffffff048311821515161561310f5761310e6132b1565b5b828202905092915050565b600061312582613164565b9050919050565b60008115159050919050565b60007fffffffff0000000000000000000000000000000000000000000000000000000082169050919050565b600073ffffffffffffffffffffffffffffffffffffffff82169050919050565b600062ffffff82169050919050565b6000819050919050565b600067ffffffffffffffff82169050919050565b82818337600083830152505050565b60005b838110156131de5780820151818401526020810190506131c3565b838111156131ed576000848401525b50505050565b60006131fe82613193565b91506000821415613212576132116132b1565b5b600182039050919050565b6000600282049050600182168061323557607f821691505b602082108114156132495761324861330f565b5b50919050565b6132588261338b565b810181811067ffffffffffffffff821117156132775761327661333e565b5b80604052505050565b600061328b82613193565b915061329683613193565b9250826132a6576132a56132e0565b5b828206905092915050565b7f4e487b7100000000000000000000000000000000000000000000000000000000600052601160045260246000fd5b7f4e487b7100000000000000000000000000000000000000000000000000000000600052601260045260246000fd5b7f4e487b7100000000000000000000000000000000000000000000000000000000600052602260045260246000fd5b7f4e487b7100000000000000000000000000000000000000000000000000000000600052604160045260246000fd5b600080fd5b600080fd5b600080fd5b600080fd5b600080fd5b600080fd5b6000601f19601f8301169050919050565b7f4f776e61626c653a206e6577206f776e657220697320746865207a65726f206160008201527f6464726573730000000000000000000000000000000000000000000000000000602082015250565b7f4f776e61626c653a2063616c6c6572206973206e6f7420746865206f776e6572600082015250565b50565b6134208161311a565b811461342b57600080fd5b50565b6134378161312c565b811461344257600080fd5b50565b61344e81613138565b811461345957600080fd5b50565b61346581613193565b811461347057600080fd5b5056fea264697066735822122058060a490653d3caeabdd6a0986801a829ca5531dea7eafb93dc52b143fa5faa64736f6c63430008070033",
  "linkReferences": {},
  "deployedLinkReferences": {}
}