{
  "_format": "hh-sol-artifact-1",
  "contractName": "NFTStakingVault",
  "sourceName": "contracts/NFTStakingVault.sol",
  "abi": [
    {
      "inputs": [
        {
          "internalType": "address",
          "name": "_nftAddress",
          "type": "address"
        },
        {
          "internalType": "address",
          "name": "_tokenAddress",
          "type": "address"
        }
      ],
      "stateMutability": "nonpayable",
      "type": "constructor"
    },
    {
      "inputs": [],
      "name": "NFTStakingVault__ItemAlreadyStaked",
      "type": "error"
    },
    {
      "inputs": [],
      "name": "NFTStakingVault__NotItemOwner",
      "type": "error"
    },
    {
      "anonymous": false,
      "inputs": [
        {
          "indexed": false,
          "internalType": "address",
          "name": "owner",
          "type": "address"
        },
        {
          "indexed": false,
          "internalType": "uint256",
          "name": "reward",
          "type": "uint256"
        }
      ],
      "name": "Claimed",
      "type": "event"
    },
    {
      "anonymous": false,
      "inputs": [
        {
          "indexed": false,
          "internalType": "uint256[]",
          "name": "tokenId",
          "type": "uint256[]"
        },
        {
          "indexed": false,
          "internalType": "address",
          "name": "owner",
          "type": "address"
        }
      ],
      "name": "ItemsStaked",
      "type": "event"
    },
    {
      "anonymous": false,
      "inputs": [
        {
          "indexed": false,
          "internalType": "uint256[]",
          "name": "tokenIds",
          "type": "uint256[]"
        },
        {
          "indexed": false,
          "internalType": "address",
          "name": "owner",
          "type": "address"
        }
      ],
      "name": "ItemsUnstaked",
      "type": "event"
    },
    {
      "inputs": [
        {
          "internalType": "address",
          "name": "user",
          "type": "address"
        }
      ],
      "name": "balanceOf",
      "outputs": [
        {
          "internalType": "uint256",
          "name": "nftStakedbalance",
          "type": "uint256"
        }
      ],
      "stateMutability": "view",
      "type": "function"
    },
    {
      "inputs": [
        {
          "internalType": "uint256[]",
          "name": "tokenIds",
          "type": "uint256[]"
        }
      ],
      "name": "claim",
      "outputs": [],
      "stateMutability": "nonpayable",
      "type": "function"
    },
    {
      "inputs": [
        {
          "internalType": "uint256",
          "name": "stakingPeriod",
          "type": "uint256"
        }
      ],
      "name": "getDailyReward",
      "outputs": [
        {
          "internalType": "uint256",
          "name": "dailyReward",
          "type": "uint256"
        }
      ],
      "stateMutability": "pure",
      "type": "function"
    },
    {
      "inputs": [
        {
          "internalType": "uint256",
          "name": "_tokenId",
          "type": "uint256"
        }
      ],
      "name": "getRewardEarnedPerNft",
      "outputs": [
        {
          "internalType": "uint256",
          "name": "rewardEarned",
          "type": "uint256"
        }
      ],
      "stateMutability": "view",
      "type": "function"
    },
    {
      "inputs": [
        {
          "internalType": "address",
          "name": "user",
          "type": "address"
        }
      ],
      "name": "getTotalRewardEarned",
      "outputs": [
        {
          "internalType": "uint256",
          "name": "rewardEarned",
          "type": "uint256"
        }
      ],
      "stateMutability": "view",
      "type": "function"
    },
    {
      "inputs": [
        {
          "internalType": "address",
          "name": "",
          "type": "address"
        },
        {
          "internalType": "address",
          "name": "",
          "type": "address"
        },
        {
          "internalType": "uint256",
          "name": "",
          "type": "uint256"
        },
        {
          "internalType": "bytes",
          "name": "",
          "type": "bytes"
        }
      ],
      "name": "onERC721Received",
      "outputs": [
        {
          "internalType": "bytes4",
          "name": "",
          "type": "bytes4"
        }
      ],
      "stateMutability": "pure",
      "type": "function"
    },
    {
      "inputs": [
        {
          "internalType": "uint256[]",
          "name": "tokenIds",
          "type": "uint256[]"
        }
      ],
      "name": "stake",
      "outputs": [],
      "stateMutability": "nonpayable",
      "type": "function"
    },
    {
      "inputs": [
        {
          "internalType": "address",
          "name": "user",
          "type": "address"
        }
      ],
      "name": "tokensOfOwner",
      "outputs": [
        {
          "internalType": "uint256[]",
          "name": "tokens",
          "type": "uint256[]"
        }
      ],
      "stateMutability": "view",
      "type": "function"
    },
    {
      "inputs": [],
      "name": "totalItemsStaked",
      "outputs": [
        {
          "internalType": "uint256",
          "name": "",
          "type": "uint256"
        }
      ],
      "stateMutability": "view",
      "type": "function"
    },
    {
      "inputs": [
        {
          "internalType": "uint256[]",
          "name": "tokenIds",
          "type": "uint256[]"
        }
      ],
      "name": "unstake",
      "outputs": [],
      "stateMutability": "nonpayable",
      "type": "function"
    }
  ],
  "bytecode": "0x60c06040523480156200001157600080fd5b506040516200194b3803806200194b8339818101604052810190620000379190620000c4565b8173ffffffffffffffffffffffffffffffffffffffff1660808173ffffffffffffffffffffffffffffffffffffffff1660601b815250508073ffffffffffffffffffffffffffffffffffffffff1660a08173ffffffffffffffffffffffffffffffffffffffff1660601b8152505050506200015e565b600081519050620000be8162000144565b92915050565b60008060408385031215620000de57620000dd6200013f565b5b6000620000ee85828601620000ad565b92505060206200010185828601620000ad565b9150509250929050565b600062000118826200011f565b9050919050565b600073ffffffffffffffffffffffffffffffffffffffff82169050919050565b600080fd5b6200014f816200010b565b81146200015b57600080fd5b50565b60805160601c60a05160601c6117a5620001a66000396000610ca601526000818161031b015281816104110152818161075e015281816108ab0152610eb501526117a56000f3fe608060405234801561001057600080fd5b506004361061009e5760003560e01c80636ba4c138116100665780636ba4c1381461016d57806370a08231146101895780638462151c146101b9578063d88d2000146101e9578063e449f341146102195761009e565b80630fbf0a93146100a3578063150b7a02146100bf57806333e58779146100ef578063454938e01461010d5780635704589c1461013d575b600080fd5b6100bd60048036038101906100b89190611186565b610235565b005b6100d960048036038101906100d491906110fe565b6105c0565b6040516100e69190611412565b60405180910390f35b6100f76105d5565b604051610104919061144d565b60405180910390f35b610127600480360381019061012291906110a4565b6105db565b604051610134919061144d565b60405180910390f35b610157600480360381019061015291906111d3565b6106ba565b604051610164919061144d565b60405180910390f35b61018760048036038101906101829190611186565b610748565b005b6101a3600480360381019061019e91906110a4565b610759565b6040516101b0919061144d565b60405180910390f35b6101d360048036038101906101ce91906110a4565b610889565b6040516101e091906113f0565b60405180910390f35b61020360048036038101906101fe91906111d3565b610a58565b604051610210919061144d565b60405180910390f35b610233600480360381019061022e9190611186565b610a6a565b005b600082829050905060005b8181101561056b57600084848381811061025d5761025c61169c565b5b905060200201359050600073ffffffffffffffffffffffffffffffffffffffff166001600083815260200190815260200160002060000160009054906101000a900473ffffffffffffffffffffffffffffffffffffffff1673ffffffffffffffffffffffffffffffffffffffff1614610302576040517fc706acb600000000000000000000000000000000000000000000000000000000815260040160405180910390fd5b3373ffffffffffffffffffffffffffffffffffffffff167f000000000000000000000000000000000000000000000000000000000000000073ffffffffffffffffffffffffffffffffffffffff16636352211e836040518263ffffffff1660e01b8152600401610372919061144d565b60206040518083038186803b15801561038a57600080fd5b505afa15801561039e573d6000803e3d6000fd5b505050506040513d601f19601f820116820180604052508101906103c291906110d1565b73ffffffffffffffffffffffffffffffffffffffff161461040f576040517ff653d4c600000000000000000000000000000000000000000000000000000000815260040160405180910390fd5b7f000000000000000000000000000000000000000000000000000000000000000073ffffffffffffffffffffffffffffffffffffffff166342842e0e3330846040518463ffffffff1660e01b815260040161046c9392919061135e565b600060405180830381600087803b15801561048657600080fd5b505af115801561049a573d6000803e3d6000fd5b5050505060405180604001604052803373ffffffffffffffffffffffffffffffffffffffff1681526020014267ffffffffffffffff168152506001600083815260200190815260200160002060008201518160000160006101000a81548173ffffffffffffffffffffffffffffffffffffffff021916908373ffffffffffffffffffffffffffffffffffffffff16021790555060208201518160000160146101000a81548167ffffffffffffffff021916908367ffffffffffffffff16021790555090505081600101915050610240565b508060005461057a91906114b2565b6000819055507f05be9727e5f8ef44e5ef226f3d7f8c202aad4325901b4639a0f27f39d7cdccfb8383336040516105b3939291906113be565b60405180910390a1505050565b600063150b7a0260e01b905095945050505050565b60005481565b6000806105e783610889565b905060008151905060005b818110156106b2576000600160008584815181106106135761061261169c565b5b6020026020010151815260200190815260200160002060000160149054906101000a900467ffffffffffffffff1667ffffffffffffffff1690506000814261065b9190611593565b9050600061066882610a7b565b905062015180670de0b6b3a764000083836106839190611539565b61068d9190611539565b6106979190611508565b876106a291906114b2565b96508360010193505050506105f2565b505050919050565b6000806001600084815260200190815260200160002060000160149054906101000a900467ffffffffffffffff1667ffffffffffffffff169050600081426107029190611593565b9050600061070f82610a7b565b905062015180670de0b6b3a7640000838361072a9190611539565b6107349190611539565b61073e9190611508565b9350505050919050565b6107553383836000610af3565b5050565b6000807f000000000000000000000000000000000000000000000000000000000000000073ffffffffffffffffffffffffffffffffffffffff166318160ddd6040518163ffffffff1660e01b815260040160206040518083038186803b1580156107c257600080fd5b505afa1580156107d6573d6000803e3d6000fd5b505050506040513d601f19601f820116820180604052508101906107fa9190611200565b905060005b818111610882578373ffffffffffffffffffffffffffffffffffffffff166001600083815260200190815260200160002060000160009054906101000a900473ffffffffffffffffffffffffffffffffffffffff1673ffffffffffffffffffffffffffffffffffffffff161415610877576001830192505b8060010190506107ff565b5050919050565b6060600061089683610759565b905060008114156108a75750610a53565b60007f000000000000000000000000000000000000000000000000000000000000000073ffffffffffffffffffffffffffffffffffffffff166318160ddd6040518163ffffffff1660e01b815260040160206040518083038186803b15801561090f57600080fd5b505afa158015610923573d6000803e3d6000fd5b505050506040513d601f19601f820116820180604052508101906109479190611200565b90508167ffffffffffffffff811115610963576109626116cb565b5b6040519080825280602002602001820160405280156109915781602001602082028036833780820191505090505b5092506000805b828111610a4e578573ffffffffffffffffffffffffffffffffffffffff166001600083815260200190815260200160002060000160009054906101000a900473ffffffffffffffffffffffffffffffffffffffff1673ffffffffffffffffffffffffffffffffffffffff161415610a435780858381518110610a1d57610a1c61169c565b5b602002602001018181525050818060010192505083821415610a425750505050610a53565b5b806001019050610998565b505050505b919050565b6000610a6382610a7b565b9050919050565b610a773383836001610af3565b5050565b600062278d008211610a905760019050610aee565b62278d006003610aa09190611539565b821015610ab05760029050610aed565b62278d006006610ac09190611539565b821015610ad05760049050610aec565b62278d006006610ae09190611539565b8210610aeb57600890505b5b5b5b919050565b600080600085859050905060005b81811015610c9b57868682818110610b1c57610b1b61169c565b5b9050602002013593508773ffffffffffffffffffffffffffffffffffffffff166001600086815260200190815260200160002060000160009054906101000a900473ffffffffffffffffffffffffffffffffffffffff1673ffffffffffffffffffffffffffffffffffffffff1614610bc0576040517ff653d4c600000000000000000000000000000000000000000000000000000000815260040160405180910390fd5b60006001600086815260200190815260200160002060000160149054906101000a900467ffffffffffffffff1667ffffffffffffffff16905060008142610c079190611593565b90506000610c1482610a7b565b905062015180670de0b6b3a76400008383610c2f9190611539565b610c399190611539565b610c439190611508565b86610c4e91906114b2565b9550426001600089815260200190815260200160002060000160146101000a81548167ffffffffffffffff021916908367ffffffffffffffff160217905550836001019350505050610b01565b5060008214610d6b577f000000000000000000000000000000000000000000000000000000000000000073ffffffffffffffffffffffffffffffffffffffff166340c10f1988846040518363ffffffff1660e01b8152600401610cff929190611395565b600060405180830381600087803b158015610d1957600080fd5b505af1158015610d2d573d6000803e3d6000fd5b505050507fd8138f8a3f377c5259ca548e70e4c2de94f129f5a11036a15b69513cba2b426a8783604051610d62929190611395565b60405180910390a15b8315610d7d57610d7c878787610d86565b5b50505050505050565b600082829050905060005b81811015610f4e576000848483818110610dae57610dad61169c565b5b9050602002013590508573ffffffffffffffffffffffffffffffffffffffff166001600083815260200190815260200160002060000160009054906101000a900473ffffffffffffffffffffffffffffffffffffffff1673ffffffffffffffffffffffffffffffffffffffff1614610e5b576040517f08c379a0000000000000000000000000000000000000000000000000000000008152600401610e529061142d565b60405180910390fd5b60016000828152602001908152602001600020600080820160006101000a81549073ffffffffffffffffffffffffffffffffffffffff02191690556000820160146101000a81549067ffffffffffffffff021916905550507f000000000000000000000000000000000000000000000000000000000000000073ffffffffffffffffffffffffffffffffffffffff166342842e0e3088846040518463ffffffff1660e01b8152600401610f109392919061135e565b600060405180830381600087803b158015610f2a57600080fd5b505af1158015610f3e573d6000803e3d6000fd5b5050505081600101915050610d91565b5080600054610f5d9190611593565b6000819055507fce2f10e8afa473f84590e633f11ac65e6b99348175c4246f429ef398ccae7612838386604051610f96939291906113be565b60405180910390a150505050565b600081359050610fb381611741565b92915050565b600081519050610fc881611741565b92915050565b60008083601f840112610fe457610fe36116ff565b5b8235905067ffffffffffffffff811115611001576110006116fa565b5b60208301915083602082028301111561101d5761101c611704565b5b9250929050565b60008083601f84011261103a576110396116ff565b5b8235905067ffffffffffffffff811115611057576110566116fa565b5b60208301915083600182028301111561107357611072611704565b5b9250929050565b60008135905061108981611758565b92915050565b60008151905061109e81611758565b92915050565b6000602082840312156110ba576110b9611713565b5b60006110c884828501610fa4565b91505092915050565b6000602082840312156110e7576110e6611713565b5b60006110f584828501610fb9565b91505092915050565b60008060008060006080868803121561111a57611119611713565b5b600061112888828901610fa4565b955050602061113988828901610fa4565b945050604061114a8882890161107a565b935050606086013567ffffffffffffffff81111561116b5761116a611709565b5b61117788828901611024565b92509250509295509295909350565b6000806020838503121561119d5761119c611713565b5b600083013567ffffffffffffffff8111156111bb576111ba611709565b5b6111c785828601610fce565b92509250509250929050565b6000602082840312156111e9576111e8611713565b5b60006111f78482850161107a565b91505092915050565b60006020828403121561121657611215611713565b5b60006112248482850161108f565b91505092915050565b60006112398383611340565b60208301905092915050565b61124e816115c7565b82525050565b60006112608385611490565b93507f07ffffffffffffffffffffffffffffffffffffffffffffffffffffffffffffff8311156112935761129261170e565b5b6020830292506112a483858461162f565b82840190509392505050565b60006112bb82611478565b6112c58185611490565b93506112d083611468565b8060005b838110156113015781516112e8888261122d565b97506112f383611483565b9250506001810190506112d4565b5085935050505092915050565b611317816115d9565b82525050565b600061132a6009836114a1565b915061133582611718565b602082019050919050565b61134981611625565b82525050565b61135881611625565b82525050565b60006060820190506113736000830186611245565b6113806020830185611245565b61138d604083018461134f565b949350505050565b60006040820190506113aa6000830185611245565b6113b7602083018461134f565b9392505050565b600060408201905081810360008301526113d9818587611254565b90506113e86020830184611245565b949350505050565b6000602082019050818103600083015261140a81846112b0565b905092915050565b6000602082019050611427600083018461130e565b92915050565b600060208201905081810360008301526114468161131d565b9050919050565b6000602082019050611462600083018461134f565b92915050565b6000819050602082019050919050565b600081519050919050565b6000602082019050919050565b600082825260208201905092915050565b600082825260208201905092915050565b60006114bd82611625565b91506114c883611625565b9250827fffffffffffffffffffffffffffffffffffffffffffffffffffffffffffffffff038211156114fd576114fc61163e565b5b828201905092915050565b600061151382611625565b915061151e83611625565b92508261152e5761152d61166d565b5b828204905092915050565b600061154482611625565b915061154f83611625565b9250817fffffffffffffffffffffffffffffffffffffffffffffffffffffffffffffffff04831182151516156115885761158761163e565b5b828202905092915050565b600061159e82611625565b91506115a983611625565b9250828210156115bc576115bb61163e565b5b828203905092915050565b60006115d282611605565b9050919050565b60007fffffffff0000000000000000000000000000000000000000000000000000000082169050919050565b600073ffffffffffffffffffffffffffffffffffffffff82169050919050565b6000819050919050565b82818337600083830152505050565b7f4e487b7100000000000000000000000000000000000000000000000000000000600052601160045260246000fd5b7f4e487b7100000000000000000000000000000000000000000000000000000000600052601260045260246000fd5b7f4e487b7100000000000000000000000000000000000000000000000000000000600052603260045260246000fd5b7f4e487b7100000000000000000000000000000000000000000000000000000000600052604160045260246000fd5b600080fd5b600080fd5b600080fd5b600080fd5b600080fd5b600080fd5b7f4e6f74204f776e65720000000000000000000000000000000000000000000000600082015250565b61174a816115c7565b811461175557600080fd5b50565b61176181611625565b811461176c57600080fd5b5056fea26469706673582212201f09b2fff2cb80e56727c915500b6e54396f46d2563c4e6864bc1b5d0f36937864736f6c63430008070033",
  "linkReferences": {},
  "deployedLinkReferences": {}
}